{
  "_format": "hh-sol-artifact-1",
  "contractName": "WavePortal",
  "sourceName": "contracts/WavePortal.sol",
  "abi": [
    {
      "inputs": [],
      "stateMutability": "nonpayable",
      "type": "constructor"
    },
    {
      "inputs": [],
      "name": "getTotalWaveCount",
      "outputs": [
        {
          "internalType": "uint256",
          "name": "",
          "type": "uint256"
        }
      ],
      "stateMutability": "view",
      "type": "function"
    },
    {
      "inputs": [
        {
          "internalType": "address",
          "name": "_caller",
          "type": "address"
        }
      ],
      "name": "getWaveCountOf",
      "outputs": [
        {
          "internalType": "uint256",
          "name": "",
          "type": "uint256"
        }
      ],
      "stateMutability": "view",
      "type": "function"
    },
    {
      "inputs": [],
      "name": "wave",
      "outputs": [],
      "stateMutability": "nonpayable",
      "type": "function"
    }
  ],
  "bytecode": "0x608060405234801561001057600080fd5b5061003c6040518060600160405280602681526020016109a96026913961004160201b61025f1760201c565b6101c4565b6100dd816040516024016100559190610142565b6040516020818303038152906040527f41304fac000000000000000000000000000000000000000000000000000000007bffffffffffffffffffffffffffffffffffffffffffffffffffffffff19166020820180517bffffffffffffffffffffffffffffffffffffffffffffffffffffffff83818316178352505050506100e060201b60201c565b50565b60008151905060006a636f6e736f6c652e6c6f679050602083016000808483855afa5050505050565b600061011482610164565b61011e818561016f565b935061012e818560208601610180565b610137816101b3565b840191505092915050565b6000602082019050818103600083015261015c8184610109565b905092915050565b600081519050919050565b600082825260208201905092915050565b60005b8381101561019e578082015181840152602081019050610183565b838111156101ad576000848401525b50505050565b6000601f19601f8301169050919050565b6107d6806101d36000396000f3fe608060405234801561001057600080fd5b50600436106100415760003560e01c80631990ff93146100465780636fe15b4414610064578063b0e405b71461006e575b600080fd5b61004e61009e565b60405161005b919061064d565b60405180910390f35b61006c6100e9565b005b6100886004803603810190610083919061050d565b610199565b604051610095919061064d565b60405180910390f35b60006100e16040518060400160405280601e81526020017f25642070656f706c6520686176652077617665642074696c6c206e6f772e00008152506001546102f8565b600154905090565b60016000803373ffffffffffffffffffffffffffffffffffffffff1673ffffffffffffffffffffffffffffffffffffffff16815260200190815260200160002060008282546101389190610684565b9250508190555060018060008282546101519190610684565b925050819055506101976040518060400160405280600f81526020017f2573206a7573742077617665642121000000000000000000000000000000000081525033610394565b565b60006102196040518060400160405280601681526020017f2573206861732077617665642025642074696d65732e00000000000000000000815250836000808673ffffffffffffffffffffffffffffffffffffffff1673ffffffffffffffffffffffffffffffffffffffff16815260200190815260200160002054610430565b6000808373ffffffffffffffffffffffffffffffffffffffff1673ffffffffffffffffffffffffffffffffffffffff168152602001908152602001600020549050919050565b6102f581604051602401610273919061058d565b6040516020818303038152906040527f41304fac000000000000000000000000000000000000000000000000000000007bffffffffffffffffffffffffffffffffffffffffffffffffffffffff19166020820180517bffffffffffffffffffffffffffffffffffffffffffffffffffffffff83818316178352505050506104cf565b50565b610390828260405160240161030e92919061061d565b6040516020818303038152906040527f9710a9d0000000000000000000000000000000000000000000000000000000007bffffffffffffffffffffffffffffffffffffffffffffffffffffffff19166020820180517bffffffffffffffffffffffffffffffffffffffffffffffffffffffff83818316178352505050506104cf565b5050565b61042c82826040516024016103aa9291906105af565b6040516020818303038152906040527f319af333000000000000000000000000000000000000000000000000000000007bffffffffffffffffffffffffffffffffffffffffffffffffffffffff19166020820180517bffffffffffffffffffffffffffffffffffffffffffffffffffffffff83818316178352505050506104cf565b5050565b6104ca838383604051602401610448939291906105df565b6040516020818303038152906040527f07c81217000000000000000000000000000000000000000000000000000000007bffffffffffffffffffffffffffffffffffffffffffffffffffffffff19166020820180517bffffffffffffffffffffffffffffffffffffffffffffffffffffffff83818316178352505050506104cf565b505050565b60008151905060006a636f6e736f6c652e6c6f679050602083016000808483855afa5050505050565b60008135905061050781610789565b92915050565b60006020828403121561051f57600080fd5b600061052d848285016104f8565b91505092915050565b61053f816106da565b82525050565b600061055082610668565b61055a8185610673565b935061056a818560208601610716565b61057381610778565b840191505092915050565b6105878161070c565b82525050565b600060208201905081810360008301526105a78184610545565b905092915050565b600060408201905081810360008301526105c98185610545565b90506105d86020830184610536565b9392505050565b600060608201905081810360008301526105f98186610545565b90506106086020830185610536565b610615604083018461057e565b949350505050565b600060408201905081810360008301526106378185610545565b9050610646602083018461057e565b9392505050565b6000602082019050610662600083018461057e565b92915050565b600081519050919050565b600082825260208201905092915050565b600061068f8261070c565b915061069a8361070c565b9250827fffffffffffffffffffffffffffffffffffffffffffffffffffffffffffffffff038211156106cf576106ce610749565b5b828201905092915050565b60006106e5826106ec565b9050919050565b600073ffffffffffffffffffffffffffffffffffffffff82169050919050565b6000819050919050565b60005b83811015610734578082015181840152602081019050610719565b83811115610743576000848401525b50505050565b7f4e487b7100000000000000000000000000000000000000000000000000000000600052601160045260246000fd5b6000601f19601f8301169050919050565b610792816106da565b811461079d57600080fd5b5056fea26469706673582212202dc2635aafc172fd5b13e6603d3204437e7cc11d88aea169c4ba15077b5d89a864736f6c6343000800003354686973206973206120636f6e747261637420616e6420697427732064616d6e20736d617274",
  "linkReferences": {},
  "deployedLinkReferences": {}
}